{
  "contractName": "FT",
  "abi": [
    {
      "constant": true,
      "inputs": [
        {
          "name": "",
          "type": "uint256"
        }
      ],
      "name": "users",
      "outputs": [
        {
          "name": "addr",
          "type": "address"
        },
        {
          "name": "balance",
          "type": "uint256"
        },
        {
          "name": "available",
          "type": "bool"
        },
        {
          "name": "masterID",
          "type": "uint256"
        },
        {
          "name": "Value",
          "type": "uint256"
        },
        {
          "name": "ipfshash",
          "type": "string"
        }
      ],
      "payable": false,
      "stateMutability": "view",
      "type": "function"
    },
    {
      "constant": true,
      "inputs": [
        {
          "name": "",
          "type": "address"
        }
      ],
      "name": "addrs",
      "outputs": [
        {
          "name": "",
          "type": "uint256"
        }
      ],
      "payable": false,
      "stateMutability": "view",
      "type": "function"
    },
    {
      "constant": true,
      "inputs": [],
      "name": "finishtime",
      "outputs": [
        {
          "name": "",
          "type": "uint256"
        }
      ],
      "payable": false,
      "stateMutability": "view",
      "type": "function"
    },
    {
      "anonymous": false,
      "inputs": [
        {
          "indexed": false,
          "name": "indexedd_from",
          "type": "address"
        },
        {
          "indexed": false,
          "name": "indexedd_to",
          "type": "address"
        },
        {
          "indexed": false,
          "name": "desc",
          "type": "string"
        }
      ],
      "name": "transferEvent",
      "type": "event"
    },
    {
      "constant": false,
      "inputs": [
        {
          "name": "hash",
          "type": "string"
        }
      ],
      "name": "createCharacter",
      "outputs": [
        {
          "name": "",
          "type": "uint256"
        }
      ],
      "payable": false,
      "stateMutability": "nonpayable",
      "type": "function"
    },
    {
      "constant": false,
      "inputs": [
        {
          "name": "_slaveAD",
          "type": "address"
        }
      ],
      "name": "buyFriend",
      "outputs": [],
      "payable": true,
      "stateMutability": "payable",
      "type": "function"
    },
    {
      "constant": false,
      "inputs": [
        {
          "name": "_slaveAD",
          "type": "address"
        }
      ],
      "name": "sendToWork",
      "outputs": [],
      "payable": false,
      "stateMutability": "nonpayable",
      "type": "function"
    },
    {
      "constant": false,
      "inputs": [
        {
          "name": "_slaveAD",
          "type": "address"
        }
      ],
      "name": "finishwork",
      "outputs": [],
      "payable": true,
      "stateMutability": "payable",
      "type": "function"
    },
    {
      "constant": false,
      "inputs": [
        {
          "name": "_slaveAD",
          "type": "address"
        },
        {
          "name": "reward",
          "type": "uint256"
        }
      ],
      "name": "rewardFriend",
      "outputs": [
        {
          "name": "",
          "type": "uint256"
        }
      ],
      "payable": true,
      "stateMutability": "payable",
      "type": "function"
    },
    {
      "constant": true,
      "inputs": [
        {
          "name": "id",
          "type": "uint256"
        }
      ],
      "name": "GetUser",
      "outputs": [
        {
          "name": "ad",
          "type": "address"
        },
        {
          "name": "balance",
          "type": "uint256"
        },
        {
          "name": "value",
          "type": "uint256"
        },
        {
          "name": "masterID",
          "type": "uint256"
        },
        {
          "name": "slavesID",
          "type": "uint256[]"
        },
        {
          "name": "available",
          "type": "bool"
        }
      ],
      "payable": false,
      "stateMutability": "view",
      "type": "function"
    },
    {
      "constant": true,
      "inputs": [
        {
          "name": "ad",
          "type": "address"
        }
      ],
      "name": "getBalance",
      "outputs": [
        {
          "name": "balance",
          "type": "uint256"
        }
      ],
      "payable": false,
      "stateMutability": "view",
      "type": "function"
    },
    {
      "constant": true,
      "inputs": [
        {
          "name": "ad",
          "type": "address"
        }
      ],
      "name": "getValue",
      "outputs": [
        {
          "name": "",
          "type": "uint256"
        }
      ],
      "payable": false,
      "stateMutability": "view",
      "type": "function"
    },
    {
      "constant": true,
      "inputs": [
        {
          "name": "ad",
          "type": "address"
        }
      ],
      "name": "getId",
      "outputs": [
        {
          "name": "id",
          "type": "uint256"
        }
      ],
      "payable": false,
      "stateMutability": "view",
      "type": "function"
    },
    {
      "constant": true,
      "inputs": [
        {
          "name": "ad",
          "type": "address"
        }
      ],
      "name": "getoneHash",
      "outputs": [
        {
          "name": "hash",
          "type": "string"
        }
      ],
      "payable": false,
      "stateMutability": "view",
      "type": "function"
    }
  ],
  "bytecode": "0x608060405262989680600055600860035534801561001c57600080fd5b50611e7b8061002c6000396000f3006080604052600436106100c5576000357c0100000000000000000000000000000000000000000000000000000000900463ffffffff168063070f1d52146100ca57806326f5ea621461019f578063365b98b2146101d55780633ccc0522146102ce578063524917f41461032557806365f68c89146103795780636d489f9f146103d05780637e6cc17f146104135780637fa293d414610490578063a4d2c492146104e7578063b69f016f146105a3578063d7af6953146105ce578063f8b2cb4f14610604575b600080fd5b3480156100d657600080fd5b506100f56004803603810190808035906020019092919050505061065b565b604051808773ffffffffffffffffffffffffffffffffffffffff1673ffffffffffffffffffffffffffffffffffffffff1681526020018681526020018581526020018481526020018060200183151515158152602001828103825284818151815260200191508051906020019060200280838360005b8381101561018657808201518184015260208101905061016b565b5050505090500197505050505050505060405180910390f35b6101d3600480360381019080803573ffffffffffffffffffffffffffffffffffffffff16906020019092919050505061077f565b005b3480156101e157600080fd5b5061020060048036038101908080359060200190929190505050610b01565b604051808773ffffffffffffffffffffffffffffffffffffffff1673ffffffffffffffffffffffffffffffffffffffff1681526020018681526020018515151515815260200184815260200183815260200180602001828103825283818151815260200191508051906020019080838360005b8381101561028e578082015181840152602081019050610273565b50505050905090810190601f1680156102bb5780820380516001836020036101000a031916815260200191505b5097505050505050505060405180910390f35b3480156102da57600080fd5b5061030f600480360381019080803573ffffffffffffffffffffffffffffffffffffffff169060200190929190505050610c02565b6040518082815260200191505060405180910390f35b610363600480360381019080803573ffffffffffffffffffffffffffffffffffffffff16906020019092919080359060200190929190505050610cdc565b6040518082815260200191505060405180910390f35b34801561038557600080fd5b506103ba600480360381019080803573ffffffffffffffffffffffffffffffffffffffff169060200190929190505050611002565b6040518082815260200191505060405180910390f35b3480156103dc57600080fd5b50610411600480360381019080803573ffffffffffffffffffffffffffffffffffffffff16906020019092919050505061104e565b005b34801561041f57600080fd5b5061047a600480360381019080803590602001908201803590602001908080601f0160208091040260200160405190810160405280939291908181526020018383808284378201915050505050509192919290505050611227565b6040518082815260200191505060405180910390f35b34801561049c57600080fd5b506104d1600480360381019080803573ffffffffffffffffffffffffffffffffffffffff1690602001909291905050506113e3565b6040518082815260200191505060405180910390f35b3480156104f357600080fd5b50610528600480360381019080803573ffffffffffffffffffffffffffffffffffffffff1690602001909291905050506113fb565b6040518080602001828103825283818151815260200191508051906020019080838360005b8381101561056857808201518184015260208101905061054d565b50505050905090810190601f1680156105955780820380516001836020036101000a031916815260200191505b509250505060405180910390f35b3480156105af57600080fd5b506105b8611568565b6040518082815260200191505060405180910390f35b610602600480360381019080803573ffffffffffffffffffffffffffffffffffffffff16906020019092919050505061156e565b005b34801561061057600080fd5b50610645600480360381019080803573ffffffffffffffffffffffffffffffffffffffff169060200190929190505050611abc565b6040518082815260200191505060405180910390f35b600080600080606060006001600088815260200190815260200160002060000160009054906101000a900473ffffffffffffffffffffffffffffffffffffffff1695506001600088815260200190815260200160002060010154945060016000888152602001908152602001600020600501549350600160008881526020019081526020016000206004015492506001600088815260200190815260200160002060020180548060200260200160405190810160405280929190818152602001828054801561074957602002820191906000526020600020905b815481526020019060010190808311610735575b505050505091506001600088815260200190815260200160002060030160009054906101000a900460ff16905091939550919395565b60008060008060045442101515610afa57600260008673ffffffffffffffffffffffffffffffffffffffff1673ffffffffffffffffffffffffffffffffffffffff168152602001908152602001600020549350600160008581526020019081526020016000209250600260003373ffffffffffffffffffffffffffffffffffffffff1673ffffffffffffffffffffffffffffffffffffffff1681526020019081526020016000205491506001600083815260200190815260200160002090508473ffffffffffffffffffffffffffffffffffffffff168360000160009054906101000a900473ffffffffffffffffffffffffffffffffffffffff1673ffffffffffffffffffffffffffffffffffffffff1614151561089c57600080fd5b3373ffffffffffffffffffffffffffffffffffffffff168160000160009054906101000a900473ffffffffffffffffffffffffffffffffffffffff1673ffffffffffffffffffffffffffffffffffffffff161415156108fa57600080fd5b81836004015414151561090c57600080fd5b600015158360030160009054906101000a900460ff16151514151561093057600080fd5b60018360030160006101000a81548160ff0219169083151502179055503373ffffffffffffffffffffffffffffffffffffffff166108fc600f9081150290604051600060405180830381858888f19350505050158015610994573d6000803e3d6000fd5b508473ffffffffffffffffffffffffffffffffffffffff166108fc60059081150290604051600060405180830381858888f193505050501580156109dc573d6000803e3d6000fd5b5060058360010160008282540192505081905550600f81600101600082825401925050819055507ffdfff4392ff5362318ba1b98b2feb43fcbd7e532248f83aabd557e0a4f7b74343386604051808373ffffffffffffffffffffffffffffffffffffffff1673ffffffffffffffffffffffffffffffffffffffff1681526020018273ffffffffffffffffffffffffffffffffffffffff1673ffffffffffffffffffffffffffffffffffffffff16815260200180602001828103825260308152602001807f7375636365737366756c6c792073656e7420796f757220736c61766520746f2081526020017f776f726b20616e642066696e6973682000000000000000000000000000000000815250604001935050505060405180910390a15b5050505050565b60016020528060005260406000206000915090508060000160009054906101000a900473ffffffffffffffffffffffffffffffffffffffff16908060010154908060030160009054906101000a900460ff1690806004015490806005015490806006018054600181600116156101000203166002900480601f016020809104026020016040519081016040528092919081815260200182805460018160011615610100020316600290048015610bf85780601f10610bcd57610100808354040283529160200191610bf8565b820191906000526020600020905b815481529060010190602001808311610bdb57829003601f168201915b5050505050905086565b6000806000600260008573ffffffffffffffffffffffffffffffffffffffff1673ffffffffffffffffffffffffffffffffffffffff1681526020019081526020016000205491508373ffffffffffffffffffffffffffffffffffffffff166001600084815260200190815260200160002060000160009054906101000a900473ffffffffffffffffffffffffffffffffffffffff1673ffffffffffffffffffffffffffffffffffffffff16141515610cb957600080fd5b600160008381526020019081526020016000206005015490508092505050919050565b600080600080600080600260008973ffffffffffffffffffffffffffffffffffffffff1673ffffffffffffffffffffffffffffffffffffffff168152602001908152602001600020549450600160008681526020019081526020016000209350600260003373ffffffffffffffffffffffffffffffffffffffff1673ffffffffffffffffffffffffffffffffffffffff1681526020019081526020016000205492506001600084815260200190815260200160002091508773ffffffffffffffffffffffffffffffffffffffff168460000160009054906101000a900473ffffffffffffffffffffffffffffffffffffffff1673ffffffffffffffffffffffffffffffffffffffff16141515610df157600080fd5b3373ffffffffffffffffffffffffffffffffffffffff168260000160009054906101000a900473ffffffffffffffffffffffffffffffffffffffff1673ffffffffffffffffffffffffffffffffffffffff16141515610e4f57600080fd5b86826001015410151515610e6257600080fd5b8773ffffffffffffffffffffffffffffffffffffffff166108fc889081150290604051600060405180830381858888f19350505050158015610ea8573d6000803e3d6000fd5b5086846001016000828254019250508190555086826001016000828254039250508190555086340390506000811115610f23573373ffffffffffffffffffffffffffffffffffffffff166108fc829081150290604051600060405180830381858888f19350505050158015610f21573d6000803e3d6000fd5b505b7ffdfff4392ff5362318ba1b98b2feb43fcbd7e532248f83aabd557e0a4f7b74343389604051808373ffffffffffffffffffffffffffffffffffffffff1673ffffffffffffffffffffffffffffffffffffffff1681526020018273ffffffffffffffffffffffffffffffffffffffff1673ffffffffffffffffffffffffffffffffffffffff168152602001806020018281038252601b8152602001807f7375636365737366756c6c7920726577617264206120736c6176650000000000815250602001935050505060405180910390a160019550505050505092915050565b6000600260008373ffffffffffffffffffffffffffffffffffffffff1673ffffffffffffffffffffffffffffffffffffffff168152602001908152602001600020549050809050919050565b600080600080600260008673ffffffffffffffffffffffffffffffffffffffff1673ffffffffffffffffffffffffffffffffffffffff168152602001908152602001600020549350600160008581526020019081526020016000209250600260003373ffffffffffffffffffffffffffffffffffffffff1673ffffffffffffffffffffffffffffffffffffffff1681526020019081526020016000205491506001600083815260200190815260200160002090508473ffffffffffffffffffffffffffffffffffffffff168360000160009054906101000a900473ffffffffffffffffffffffffffffffffffffffff1673ffffffffffffffffffffffffffffffffffffffff1614151561116057600080fd5b3373ffffffffffffffffffffffffffffffffffffffff168160000160009054906101000a900473ffffffffffffffffffffffffffffffffffffffff1673ffffffffffffffffffffffffffffffffffffffff161415156111be57600080fd5b8183600401541415156111d057600080fd5b600115158360030160009054906101000a900460ff1615151415156111f457600080fd5b610e1060035402420160048190555060008360030160006101000a81548160ff0219169083151502179055505050505050565b600080339050600054600260008373ffffffffffffffffffffffffffffffffffffffff1673ffffffffffffffffffffffffffffffffffffffff1681526020019081526020016000208190555060e0604051908101604052808273ffffffffffffffffffffffffffffffffffffffff1681526020016103e8815260200160006040519080825280602002602001820160405280156112d35781602001602082028038833980820191505090505b5081526020016000151581526020016000815260200160328152602001848152506001600080600081548092919060010191905055815260200190815260200160002060008201518160000160006101000a81548173ffffffffffffffffffffffffffffffffffffffff021916908373ffffffffffffffffffffffffffffffffffffffff160217905550602082015181600101556040820151816002019080519060200190611383929190611ce4565b5060608201518160030160006101000a81548160ff0219169083151502179055506080820151816004015560a0820151816005015560c08201518160060190805190602001906113d4929190611d31565b50905050600054915050919050565b60026020528060005260406000206000915090505481565b60606000600260008473ffffffffffffffffffffffffffffffffffffffff1673ffffffffffffffffffffffffffffffffffffffff1681526020019081526020016000205490508273ffffffffffffffffffffffffffffffffffffffff166001600083815260200190815260200160002060000160009054906101000a900473ffffffffffffffffffffffffffffffffffffffff1673ffffffffffffffffffffffffffffffffffffffff161415156114b157600080fd5b600160008281526020019081526020016000206006018054600181600116156101000203166002900480601f01602080910402602001604051908101604052809291908181526020018280546001816001161561010002031660029004801561155b5780601f106115305761010080835404028352916020019161155b565b820191906000526020600020905b81548152906001019060200180831161153e57829003601f168201915b5050505050915050919050565b60045481565b600080600080600080600080600260008a73ffffffffffffffffffffffffffffffffffffffff1673ffffffffffffffffffffffffffffffffffffffff168152602001908152602001600020549750600160008981526020019081526020016000209650866005015495508873ffffffffffffffffffffffffffffffffffffffff168760000160009054906101000a900473ffffffffffffffffffffffffffffffffffffffff1673ffffffffffffffffffffffffffffffffffffffff1614151561163657600080fd5b600260003373ffffffffffffffffffffffffffffffffffffffff1673ffffffffffffffffffffffffffffffffffffffff1681526020019081526020016000205494506001600086815260200190815260200160002093503373ffffffffffffffffffffffffffffffffffffffff168460000160009054906101000a900473ffffffffffffffffffffffffffffffffffffffff1673ffffffffffffffffffffffffffffffffffffffff161415156116eb57600080fd5b8584600101541115156116fd57600080fd5b853411151561170b57600080fd5b60008760040154141561178e578873ffffffffffffffffffffffffffffffffffffffff166108fc60048881151561173e57fe5b049081150290604051600060405180830381858888f1935050505015801561176a573d6000803e3d6000fd5b5060048681151561177757fe5b048760010160008282540192505081905550611900565b600115158760030160009054906101000a900460ff1615151415156117b257600080fd5b600160008560040154815260200190815260200160002092508260000160009054906101000a900473ffffffffffffffffffffffffffffffffffffffff1673ffffffffffffffffffffffffffffffffffffffff166108fc60046003890281151561181857fe5b049081150290604051600060405180830381858888f19350505050158015611844573d6000803e3d6000fd5b5060046003870281151561185457fe5b0483600101600082825401925050819055508873ffffffffffffffffffffffffffffffffffffffff166108fc60048881151561188c57fe5b049081150290604051600060405180830381858888f193505050501580156118b8573d6000803e3d6000fd5b506004868115156118c557fe5b0487600101600082825401925050819055508260020191506118e78289611b93565b8360020190805190602001906118fe929190611db1565b505b85340390506000811115611956573373ffffffffffffffffffffffffffffffffffffffff166108fc829081150290604051600060405180830381858888f19350505050158015611954573d6000803e3d6000fd5b505b85846001016000828254039250508190555084876004018190555060018760030160006101000a81548160ff02191690831515021790555060148760050160008282540192505081905550600160008681526020019081526020016000206002018890806001815401808255809150509060018203906000526020600020016000909192909190915055507ffdfff4392ff5362318ba1b98b2feb43fcbd7e532248f83aabd557e0a4f7b7434338a604051808373ffffffffffffffffffffffffffffffffffffffff1673ffffffffffffffffffffffffffffffffffffffff1681526020018273ffffffffffffffffffffffffffffffffffffffff1673ffffffffffffffffffffffffffffffffffffffff16815260200180602001828103825260188152602001807f7375636365737366756c6c7920627579206120736c6176650000000000000000815250602001935050505060405180910390a1505050505050505050565b600080600260008473ffffffffffffffffffffffffffffffffffffffff1673ffffffffffffffffffffffffffffffffffffffff1681526020019081526020016000205490508273ffffffffffffffffffffffffffffffffffffffff166001600083815260200190815260200160002060000160009054906101000a900473ffffffffffffffffffffffffffffffffffffffff1673ffffffffffffffffffffffffffffffffffffffff16141515611b7157600080fd5b6001600082815260200190815260200160002060010154915081915050919050565b606060008060008091505b8580549050821015611bdb57848683815481101515611bb957fe5b90600052602060002001541415611bce578192505b8180600101925050611b9e565b858054905083101580611bee5750600083145b15611bf857611cdb565b8290505b6001868054905003811015611c50578560018201815481101515611c1c57fe5b90600052602060002001548682815481101515611c3557fe5b90600052602060002001819055508080600101915050611bfc565b856001878054905003815481101515611c6557fe5b906000526020600020016000905585805480919060019003611c879190611dfe565b5085805480602002602001604051908101604052809291908181526020018280548015611cd357602002820191906000526020600020905b815481526020019060010190808311611cbf575b505050505093505b50505092915050565b828054828255906000526020600020908101928215611d20579160200282015b82811115611d1f578251825591602001919060010190611d04565b5b509050611d2d9190611e2a565b5090565b828054600181600116156101000203166002900490600052602060002090601f016020900481019282601f10611d7257805160ff1916838001178555611da0565b82800160010185558215611da0579182015b82811115611d9f578251825591602001919060010190611d84565b5b509050611dad9190611e2a565b5090565b828054828255906000526020600020908101928215611ded579160200282015b82811115611dec578251825591602001919060010190611dd1565b5b509050611dfa9190611e2a565b5090565b815481835581811115611e2557818360005260206000209182019101611e249190611e2a565b5b505050565b611e4c91905b80821115611e48576000816000905550600101611e30565b5090565b905600a165627a7a723058201ebcadbcd052be83fb05034cc980bf4bbfcce3b202239ae10e5dddbf09e280cf0029",
  "source": "pragma solidity ^0.4.22;\ncontract FT {\n    \n    //event NewCharacter(address addr,uint balance,bool available,uint masterID,uint value);\n    event transferEvent(address indexedd_from,address indexedd_to,  string desc);\n    //event workEvent(address indexedd_from,address indexedd_to, uint value, string desc);\n    //event rewardEvent(address indexedd_from,address indexedd_to, uint value, string desc);\n    \n    \n    struct User{\n        address addr;\n        uint balance;\n        uint[] slavesID;\n        bool available; //SendToWork\n        uint masterID;\n        uint Value;\n        string ipfshash;\n    }\n    \n    uint userID = 10000000;\n    mapping(uint => User) public users;\n    mapping(address => uint) public addrs;\n    \n    \n    \n    //1. add new users\n    function createCharacter(string hash) public returns( uint ){\n        address ad = msg.sender;\n        addrs[ad] = userID;\n        users[userID++] = User({\n                               addr: ad,\n                               balance: 1000,\n                               slavesID: new uint[](0),\n                               available: false,\n                               masterID: 0, //\n                               Value: 50,\n                               ipfshash: hash\n                               });\n        return userID;\n        //NewCharacter(msg.sender,1000,false,0,50);\n    }\n    \n    //inputs only need slaves address;\n    \n    //2. buy friend!\n    function buyFriend(address _slaveAD) public payable {\n        uint _slaveID = addrs[_slaveAD];\n        User storage _slave = users[_slaveID];\n        uint price = _slave.Value;\n        require(_slave.addr == _slaveAD);\n        uint _buyerID = addrs[msg.sender];\n        User storage _buyer= users[_buyerID];\n        require(_buyer.addr == msg.sender);\n        require(_buyer.balance>price);\n        require(msg.value>price);\n        if (_slave.masterID == 0){\n            _slaveAD.transfer(price/4);\n            _slave.balance +=price /4;\n            \n        }\n        else{\n            require(_slave.available == true);\n            User storage per_master = users[_buyer.masterID];\n            //transfer money\n            per_master.addr.transfer(price *3/4);\n            per_master.balance +=price *3/4;\n            _slaveAD.transfer(price/4);\n            _slave.balance +=price /4;\n            //delete slavesID\n            uint[] storage per_slave = per_master.slavesID;\n            per_master.slavesID = remove(per_slave,_slaveID);\n        }\n        uint extra = msg.value - price;\n        if (extra > 0) {\n            msg.sender.transfer(extra);\n        }\n        _buyer.balance -= price;\n        //slave\n        _slave.masterID = _buyerID;\n        _slave.available = true;\n        _slave.Value += 20;\n        //master\n        users[_buyerID].slavesID.push(_slaveID);\n        // _buyerID.balance -= price;\n        //BuyEvent(price);\n        transferEvent(msg.sender,_slaveAD, \"successfully buy a slave\");\n    }\n    \n    //3. send your slave to work!\n    uint work_hour = 8;\n    uint public finishtime;\n    modifier afterworktime(){if (now >= finishtime) _; }\n    function sendToWork(address _slaveAD) public{\n        uint _slaveID = addrs[_slaveAD];\n        User storage _slave = users[_slaveID];\n        \n        uint _masterID = addrs[msg.sender];\n        User storage _master = users[_masterID];\n        \n        require(_slave.addr == _slaveAD);\n        require(_master.addr == msg.sender);\n        \n        require(_slave.masterID == _masterID);\n        \n        //require(users[_masterID].addr == msg.sender);\n        //require(users[_slaveID].masterID == _masterID);\n        \n        require(_slave.available == true);\n        finishtime = now + work_hour * 1 hours;\n        _slave.available = false;\n    }\n\n\n    function finishwork(address _slaveAD) public afterworktime payable{\n        //uint work_reward = 20;\n        uint _slaveID = addrs[_slaveAD];\n        User storage _slave = users[_slaveID];\n        \n        uint _masterID = addrs[msg.sender];\n        User storage _master = users[_masterID];\n        \n        require(_slave.addr == _slaveAD);\n        require(_master.addr == msg.sender);\n        require(_slave.masterID == _masterID);\n        require(_slave.available == false);\n        \n        _slave.available = true;\n        msg.sender.transfer(15);\n        _slaveAD.transfer(5);\n        _slave.balance +=5;\n        _master.balance +=15;\n        \n        transferEvent(msg.sender,_slaveAD,  \"successfully sent your slave to work and finish \");\n    }\n    \n    // 4. reward slaves\n    function rewardFriend(address _slaveAD, uint reward) public payable returns( uint){\n        uint _slaveID = addrs[_slaveAD];\n        User storage _slave = users[_slaveID];\n        \n        uint _userID = addrs[msg.sender];\n        User storage _user = users[_userID];\n        \n        require(_slave.addr == _slaveAD);\n        require(_user.addr == msg.sender);\n        \n        //uint reward = msg.value;\n        require(_user.balance>=reward);\n        //address user_addr = users[_userID].addr;\n        //require(user_addr == msg.sender);\n        //uint _masterID = _slave.masterID;\n        //User storage _master = users[_masterID];\n        _slaveAD.transfer(reward);\n        _slave.balance +=reward;\n        _user.balance -=reward;\n        uint extra = msg.value - reward;\n        if (extra > 0) {\n            msg.sender.transfer(extra);\n        }\n        transferEvent(msg.sender,_slaveAD,  \"successfully reward a slave\");\n        //n =1;\n        return 1;\n        \n        \n    }\n    \n    \n    //5. get information of users(id , balance, matserID, []slavesID, available)\n    function GetUser(uint id)  view public returns(address ad, uint balance, uint value,uint masterID,\n                                                      uint[] slavesID, bool available){\n\n        //id = addrs[ad];\n        ad = users[id].addr ;\n        balance = users[id].balance;\n        value = users[id].Value;\n        masterID = users[id].masterID;\n        slavesID = users[id].slavesID;\n        available = users[id].available;\n    }\n    \n    // get your balance\n    function getBalance(address ad)  view public returns(uint balance){\n        //address ad =msg.sender;\n        uint id = addrs[ad];\n        require(users[id].addr == ad);\n        balance = users[id].balance;\n        return balance;\n    }\n    \n    function getValue(address ad)  view public returns(uint ){\n        //address ad =msg.sender;\n        uint id = addrs[ad];\n        require(users[id].addr == ad);\n        uint value = users[id].Value;\n        return value;\n    }\n\n    // get id\n    function getId(address ad)  view public returns(uint id){\n\n        id = addrs[ad];\n        return id;\n    }\n    // get IPFS hash value of introduction and name\n    function getoneHash(address ad) view public returns(string hash) {\n        uint id = addrs[ad];\n        require(users[id].addr == ad);\n        hash = users[id].ipfshash;\n    }\n    \n    \n    //delete Slave from slave former maser slavesID\n    function remove(uint[] storage array,uint _slaveID) internal returns(uint[]) {\n        uint index;\n        for (uint i =0; i < array.length; i++){\n            if(array[i]==_slaveID){\n                index = i;\n            }\n        }\n        \n        if (index >= array.length || index ==0) return;\n        \n        for (uint j = index; j<array.length-1; j++){\n            array[j] = array[j+1];\n        }\n        delete array[array.length-1];\n        array.length --;\n        return array;\n    }\n}\n",
  "sourcePath": "/Users/eloise/SC/H/contracts/FT.sol",
  "compiler": {
    "name": "solc",
    "version": "0.4.23+commit.124ca40d.Emscripten.clang"
  },
  "schemaVersion": "2.0.0",
  "updatedAt": "2018-05-08T07:36:53.474Z"
}